{
  "contractName": "TradeFinance",
  "abi": [
    {
      "constant": true,
      "inputs": [],
      "name": "seller",
      "outputs": [
        {
          "name": "",
          "type": "address"
        }
      ],
      "payable": false,
      "stateMutability": "view",
      "type": "function",
      "signature": "0x08551a53"
    },
    {
      "constant": true,
      "inputs": [],
      "name": "approved",
      "outputs": [
        {
          "name": "",
          "type": "bool"
        }
      ],
      "payable": false,
      "stateMutability": "view",
      "type": "function",
      "signature": "0x19d40b08"
    },
    {
      "constant": true,
      "inputs": [],
      "name": "trade",
      "outputs": [
        {
          "name": "commodity",
          "type": "bytes32"
        },
        {
          "name": "price",
          "type": "uint256"
        },
        {
          "name": "deliveryDate",
          "type": "uint256"
        },
        {
          "name": "deliveryVehicle",
          "type": "bytes32"
        },
        {
          "name": "deliveryTerm",
          "type": "bytes32"
        },
        {
          "name": "quantity",
          "type": "uint256"
        },
        {
          "name": "tolerance",
          "type": "uint256"
        },
        {
          "name": "surveyCompany",
          "type": "bytes32"
        },
        {
          "name": "insuranceCertificate",
          "type": "bytes32"
        },
        {
          "name": "commodityInfo",
          "type": "bytes"
        },
        {
          "name": "status",
          "type": "uint8"
        }
      ],
      "payable": false,
      "stateMutability": "view",
      "type": "function",
      "signature": "0x1f0ba6c9"
    },
    {
      "constant": true,
      "inputs": [],
      "name": "sellerBank",
      "outputs": [
        {
          "name": "",
          "type": "address"
        }
      ],
      "payable": false,
      "stateMutability": "view",
      "type": "function",
      "signature": "0x5cb660e0"
    },
    {
      "constant": true,
      "inputs": [],
      "name": "buyer",
      "outputs": [
        {
          "name": "",
          "type": "address"
        }
      ],
      "payable": false,
      "stateMutability": "view",
      "type": "function",
      "signature": "0x7150d8ae"
    },
    {
      "constant": true,
      "inputs": [],
      "name": "description",
      "outputs": [
        {
          "name": "",
          "type": "bytes"
        }
      ],
      "payable": false,
      "stateMutability": "view",
      "type": "function",
      "signature": "0x7284e416"
    },
    {
      "constant": true,
      "inputs": [],
      "name": "buyerBank",
      "outputs": [
        {
          "name": "",
          "type": "address"
        }
      ],
      "payable": false,
      "stateMutability": "view",
      "type": "function",
      "signature": "0x75a1fe5b"
    },
    {
      "constant": true,
      "inputs": [],
      "name": "terms",
      "outputs": [
        {
          "name": "",
          "type": "bytes"
        }
      ],
      "payable": false,
      "stateMutability": "view",
      "type": "function",
      "signature": "0xd5025625"
    },
    {
      "constant": true,
      "inputs": [],
      "name": "escrow",
      "outputs": [
        {
          "name": "",
          "type": "address"
        }
      ],
      "payable": false,
      "stateMutability": "view",
      "type": "function",
      "signature": "0xe2fdcc17"
    },
    {
      "inputs": [
        {
          "name": "_seller",
          "type": "address"
        },
        {
          "name": "_buyerBank",
          "type": "address"
        },
        {
          "name": "_sellerBank",
          "type": "address"
        },
        {
          "name": "_description",
          "type": "bytes"
        },
        {
          "name": "_commodity",
          "type": "bytes32"
        },
        {
          "name": "_price",
          "type": "uint256"
        },
        {
          "name": "_deliveryDate",
          "type": "uint256"
        },
        {
          "name": "_deliveryVehicle",
          "type": "bytes32"
        },
        {
          "name": "_deliveryTerm",
          "type": "bytes32"
        },
        {
          "name": "_quantity",
          "type": "uint256"
        },
        {
          "name": "_tolerance",
          "type": "uint256"
        },
        {
          "name": "_insuranceCertificate",
          "type": "bytes32"
        },
        {
          "name": "_surveyCompany",
          "type": "bytes32"
        },
        {
          "name": "_commodityInfo",
          "type": "bytes"
        },
        {
          "name": "_terms",
          "type": "bytes"
        }
      ],
      "payable": false,
      "stateMutability": "nonpayable",
      "type": "constructor",
      "signature": "constructor"
    },
    {
      "anonymous": false,
      "inputs": [
        {
          "indexed": false,
          "name": "_timestamp",
          "type": "uint256"
        }
      ],
      "name": "ContractApproved",
      "type": "event",
      "signature": "0xd197ef70dfa5d30c3e023138d4396103a72967d6a6ab897fdd1eecb9427e7e4c"
    },
    {
      "anonymous": false,
      "inputs": [
        {
          "indexed": false,
          "name": "_message",
          "type": "bytes32"
        }
      ],
      "name": "ConditionFullfiled",
      "type": "event",
      "signature": "0xb652d6c847e9869603d68a3e449fcb4b81f35b94a2a86946ca51bfbeb95491c6"
    },
    {
      "anonymous": false,
      "inputs": [
        {
          "indexed": false,
          "name": "_buyer",
          "type": "address"
        },
        {
          "indexed": false,
          "name": "_seller",
          "type": "address"
        },
        {
          "indexed": false,
          "name": "_buyerBank",
          "type": "address"
        },
        {
          "indexed": false,
          "name": "_sellerBank",
          "type": "address"
        },
        {
          "indexed": false,
          "name": "timestamp",
          "type": "uint256"
        }
      ],
      "name": "TradeConcluded",
      "type": "event",
      "signature": "0x642ada529b6301f6fe1b1ea3aece146ff7b00fdcb7402c85723f81f32f65a837"
    },
    {
      "constant": false,
      "inputs": [],
      "name": "approveContract",
      "outputs": [],
      "payable": false,
      "stateMutability": "nonpayable",
      "type": "function",
      "signature": "0x43d00d04"
    },
    {
      "constant": false,
      "inputs": [],
      "name": "initiateTrade",
      "outputs": [],
      "payable": true,
      "stateMutability": "payable",
      "type": "function",
      "signature": "0xd7d63686"
    },
    {
      "constant": false,
      "inputs": [
        {
          "name": "message",
          "type": "bytes32"
        }
      ],
      "name": "indicateMetCondition",
      "outputs": [],
      "payable": false,
      "stateMutability": "nonpayable",
      "type": "function",
      "signature": "0x18ed06c3"
    },
    {
      "constant": false,
      "inputs": [],
      "name": "finalSellerBankApproval",
      "outputs": [],
      "payable": true,
      "stateMutability": "payable",
      "type": "function",
      "signature": "0xc1e7e5d5"
    }
  ],
  "bytecode": "0x60806040523480156200001157600080fd5b5060405162002b2538038062002b2583398101806040526101e08110156200003857600080fd5b8101908080519060200190929190805190602001909291908051906020019092919080516401000000008111156200006f57600080fd5b828101905060208101848111156200008657600080fd5b8151856001820283011164010000000082111715620000a457600080fd5b505092919060200180519060200190929190805190602001909291908051906020019092919080519060200190929190805190602001909291908051906020019092919080519060200190929190805190602001909291908051906020019092919080516401000000008111156200011b57600080fd5b828101905060208101848111156200013257600080fd5b81518560018202830111640100000000821117156200015057600080fd5b505092919060200180516401000000008111156200016d57600080fd5b828101905060208101848111156200018457600080fd5b8151856001820283011164010000000082111715620001a257600080fd5b5050929190505050600073ffffffffffffffffffffffffffffffffffffffff168e73ffffffffffffffffffffffffffffffffffffffff161415151562000250576040517f08c379a000000000000000000000000000000000000000000000000000000000815260040180806020018281038252600f8152602001807f696e76616c69642061646472657373000000000000000000000000000000000081525060200191505060405180910390fd5b600073ffffffffffffffffffffffffffffffffffffffff168d73ffffffffffffffffffffffffffffffffffffffff1614151515620002f6576040517f08c379a000000000000000000000000000000000000000000000000000000000815260040180806020018281038252600f8152602001807f696e76616c69642061646472657373000000000000000000000000000000000081525060200191505060405180910390fd5b600073ffffffffffffffffffffffffffffffffffffffff168f73ffffffffffffffffffffffffffffffffffffffff16141515156200039c576040517f08c379a000000000000000000000000000000000000000000000000000000000815260040180806020018281038252600f8152602001807f696e76616c69642061646472657373000000000000000000000000000000000081525060200191505060405180910390fd5b336000806101000a81548173ffffffffffffffffffffffffffffffffffffffff021916908373ffffffffffffffffffffffffffffffffffffffff1602179055508e600160006101000a81548173ffffffffffffffffffffffffffffffffffffffff021916908373ffffffffffffffffffffffffffffffffffffffff1602179055508d600260006101000a81548173ffffffffffffffffffffffffffffffffffffffff021916908373ffffffffffffffffffffffffffffffffffffffff1602179055508c600360006101000a81548173ffffffffffffffffffffffffffffffffffffffff021916908373ffffffffffffffffffffffffffffffffffffffff1602179055508b600f9080519060200190620004b79291906200067a565b50610160604051908101604052808c81526020018b81526020018a8152602001898152602001888152602001878152602001868152602001848152602001858152602001838152602001600060048111156200050f57fe5b8152506004600082015181600001556020820151816001015560408201518160020155606082015181600301556080820151816004015560a0820151816005015560c0820151816006015560e0820151816007015561010082015181600801556101208201518160090190805190602001906200058e92919062000701565b5061014082015181600a0160006101000a81548160ff02191690836004811115620005b557fe5b02179055509050506000601260006101000a81548160ff0219169083151502179055506004620005e462000788565b80828152602001915050604051809103906000f0801580156200060b573d6000803e3d6000fd5b50601060006101000a81548173ffffffffffffffffffffffffffffffffffffffff021916908373ffffffffffffffffffffffffffffffffffffffff1602179055508060119080519060200190620006649291906200067a565b50505050505050505050505050505050620007c1565b828054600181600116156101000203166002900490600052602060002090601f016020900481019282601f10620006bd57805160ff1916838001178555620006ee565b82800160010185558215620006ee579182015b82811115620006ed578251825591602001919060010190620006d0565b5b509050620006fd919062000799565b5090565b828054600181600116156101000203166002900490600052602060002090601f016020900481019282601f106200074457805160ff191683800117855562000775565b8280016001018555821562000775579182015b828111156200077457825182559160200191906001019062000757565b5b50905062000784919062000799565b5090565b604051610b928062001f9383390190565b620007be91905b80821115620007ba576000816000905550600101620007a0565b5090565b90565b6117c280620007d16000396000f3fe6080604052600436106100c5576000357c0100000000000000000000000000000000000000000000000000000000900463ffffffff16806308551a53146100ca57806318ed06c31461012157806319d40b081461015c5780631f0ba6c91461018b57806343d00d041461026f5780635cb660e0146102865780637150d8ae146102dd5780637284e4161461033457806375a1fe5b146103c4578063c1e7e5d51461041b578063d502562514610425578063d7d63686146104b5578063e2fdcc17146104bf575b600080fd5b3480156100d657600080fd5b506100df610516565b604051808273ffffffffffffffffffffffffffffffffffffffff1673ffffffffffffffffffffffffffffffffffffffff16815260200191505060405180910390f35b34801561012d57600080fd5b5061015a6004803603602081101561014457600080fd5b810190808035906020019092919050505061053c565b005b34801561016857600080fd5b50610171610aa9565b604051808215151515815260200191505060405180910390f35b34801561019757600080fd5b506101a0610abc565b604051808c81526020018b81526020018a8152602001898152602001888152602001878152602001868152602001858152602001848152602001806020018360048111156101ea57fe5b60ff168152602001828103825284818151815260200191508051906020019080838360005b8381101561022a57808201518184015260208101905061020f565b50505050905090810190601f1680156102575780820380516001836020036101000a031916815260200191505b509c5050505050505050505050505060405180910390f35b34801561027b57600080fd5b50610284610ba9565b005b34801561029257600080fd5b5061029b610d89565b604051808273ffffffffffffffffffffffffffffffffffffffff1673ffffffffffffffffffffffffffffffffffffffff16815260200191505060405180910390f35b3480156102e957600080fd5b506102f2610daf565b604051808273ffffffffffffffffffffffffffffffffffffffff1673ffffffffffffffffffffffffffffffffffffffff16815260200191505060405180910390f35b34801561034057600080fd5b50610349610dd4565b6040518080602001828103825283818151815260200191508051906020019080838360005b8381101561038957808201518184015260208101905061036e565b50505050905090810190601f1680156103b65780820380516001836020036101000a031916815260200191505b509250505060405180910390f35b3480156103d057600080fd5b506103d9610e72565b604051808273ffffffffffffffffffffffffffffffffffffffff1673ffffffffffffffffffffffffffffffffffffffff16815260200191505060405180910390f35b610423610e98565b005b34801561043157600080fd5b5061043a611348565b6040518080602001828103825283818151815260200191508051906020019080838360005b8381101561047a57808201518184015260208101905061045f565b50505050905090810190601f1680156104a75780820380516001836020036101000a031916815260200191505b509250505060405180910390f35b6104bd6113e6565b005b3480156104cb57600080fd5b506104d4611770565b604051808273ffffffffffffffffffffffffffffffffffffffff1673ffffffffffffffffffffffffffffffffffffffff16815260200191505060405180910390f35b600160009054906101000a900473ffffffffffffffffffffffffffffffffffffffff1681565b600260009054906101000a900473ffffffffffffffffffffffffffffffffffffffff1673ffffffffffffffffffffffffffffffffffffffff163373ffffffffffffffffffffffffffffffffffffffff16141515610601576040517f08c379a000000000000000000000000000000000000000000000000000000000815260040180806020018281038252600e8152602001807f696e76616c69642061636365737300000000000000000000000000000000000081525060200191505060405180910390fd5b6002600481111561060e57fe5b6004600a0160009054906101000a900460ff16600481111561062c57fe5b1415156106a1576040517f08c379a000000000000000000000000000000000000000000000000000000000815260040180806020018281038252600e8152602001807f496e76616c69642073746174757300000000000000000000000000000000000081525060200191505060405180910390fd5b6004601060009054906101000a900473ffffffffffffffffffffffffffffffffffffffff1673ffffffffffffffffffffffffffffffffffffffff166330ccebb5600360009054906101000a900473ffffffffffffffffffffffffffffffffffffffff166040518263ffffffff167c0100000000000000000000000000000000000000000000000000000000028152600401808273ffffffffffffffffffffffffffffffffffffffff1673ffffffffffffffffffffffffffffffffffffffff16815260200191505060206040518083038186803b15801561078057600080fd5b505afa158015610794573d6000803e3d6000fd5b505050506040513d60208110156107aa57600080fd5b8101908080519060200190929190505050101515610830576040517f08c379a000000000000000000000000000000000000000000000000000000000815260040180806020018281038252601c8152602001807f636f6e646974696f6e7320616c72656164792066756c66696c6c65640000000081525060200191505060405180910390fd5b6003601060009054906101000a900473ffffffffffffffffffffffffffffffffffffffff1673ffffffffffffffffffffffffffffffffffffffff166330ccebb5600360009054906101000a900473ffffffffffffffffffffffffffffffffffffffff166040518263ffffffff167c0100000000000000000000000000000000000000000000000000000000028152600401808273ffffffffffffffffffffffffffffffffffffffff1673ffffffffffffffffffffffffffffffffffffffff16815260200191505060206040518083038186803b15801561090f57600080fd5b505afa158015610923573d6000803e3d6000fd5b505050506040513d602081101561093957600080fd5b810190808051906020019092919050505014156109785760036004600a0160006101000a81548160ff0219169083600481111561097257fe5b02179055505b601060009054906101000a900473ffffffffffffffffffffffffffffffffffffffff1673ffffffffffffffffffffffffffffffffffffffff1663e44e241f600360009054906101000a900473ffffffffffffffffffffffffffffffffffffffff166040518263ffffffff167c0100000000000000000000000000000000000000000000000000000000028152600401808273ffffffffffffffffffffffffffffffffffffffff1673ffffffffffffffffffffffffffffffffffffffff168152602001915050600060405180830381600087803b158015610a5757600080fd5b505af1158015610a6b573d6000803e3d6000fd5b505050507fb652d6c847e9869603d68a3e449fcb4b81f35b94a2a86946ca51bfbeb95491c6816040518082815260200191505060405180910390a150565b601260009054906101000a900460ff1681565b6004806000015490806001015490806002015490806003015490806004015490806005015490806006015490806007015490806008015490806009018054600181600116156101000203166002900480601f016020809104026020016040519081016040528092919081815260200182805460018160011615610100020316600290048015610b8c5780601f10610b6157610100808354040283529160200191610b8c565b820191906000526020600020905b815481529060010190602001808311610b6f57829003601f168201915b50505050509080600a0160009054906101000a900460ff1690508b565b600160009054906101000a900473ffffffffffffffffffffffffffffffffffffffff1673ffffffffffffffffffffffffffffffffffffffff163373ffffffffffffffffffffffffffffffffffffffff16141515610c6e576040517f08c379a000000000000000000000000000000000000000000000000000000000815260040180806020018281038252600e8152602001807f696e76616c69642061636365737300000000000000000000000000000000000081525060200191505060405180910390fd5b60006004811115610c7b57fe5b6004600a0160009054906101000a900460ff166004811115610c9957fe5b141515610d0e576040517f08c379a000000000000000000000000000000000000000000000000000000000815260040180806020018281038252600e8152602001807f696e76616c69642073746174757300000000000000000000000000000000000081525060200191505060405180910390fd5b6001601260006101000a81548160ff02191690831515021790555060016004600a0160006101000a81548160ff02191690836004811115610d4b57fe5b02179055507fd197ef70dfa5d30c3e023138d4396103a72967d6a6ab897fdd1eecb9427e7e4c426040518082815260200191505060405180910390a1565b600360009054906101000a900473ffffffffffffffffffffffffffffffffffffffff1681565b6000809054906101000a900473ffffffffffffffffffffffffffffffffffffffff1681565b600f8054600181600116156101000203166002900480601f016020809104026020016040519081016040528092919081815260200182805460018160011615610100020316600290048015610e6a5780601f10610e3f57610100808354040283529160200191610e6a565b820191906000526020600020905b815481529060010190602001808311610e4d57829003601f168201915b505050505081565b600260009054906101000a900473ffffffffffffffffffffffffffffffffffffffff1681565b600360009054906101000a900473ffffffffffffffffffffffffffffffffffffffff1673ffffffffffffffffffffffffffffffffffffffff163373ffffffffffffffffffffffffffffffffffffffff16141515610f5d576040517f08c379a000000000000000000000000000000000000000000000000000000000815260040180806020018281038252600e8152602001807f696e76616c69642061636365737300000000000000000000000000000000000081525060200191505060405180910390fd5b60036004811115610f6a57fe5b6004600a0160009054906101000a900460ff166004811115610f8857fe5b141515610ffd576040517f08c379a000000000000000000000000000000000000000000000000000000000815260040180806020018281038252600e8152602001807f496e76616c69642073746174757300000000000000000000000000000000000081525060200191505060405180910390fd5b601060009054906101000a900473ffffffffffffffffffffffffffffffffffffffff1673ffffffffffffffffffffffffffffffffffffffff1663833caae66040518163ffffffff167c0100000000000000000000000000000000000000000000000000000000028152600401600060405180830381600087803b15801561108357600080fd5b505af1158015611097573d6000803e3d6000fd5b50505050600480600a0160006101000a81548160ff021916908360048111156110bc57fe5b0217905550601060009054906101000a900473ffffffffffffffffffffffffffffffffffffffff1673ffffffffffffffffffffffffffffffffffffffff166351cff8d9600360009054906101000a900473ffffffffffffffffffffffffffffffffffffffff166040518263ffffffff167c0100000000000000000000000000000000000000000000000000000000028152600401808273ffffffffffffffffffffffffffffffffffffffff1673ffffffffffffffffffffffffffffffffffffffff168152602001915050600060405180830381600087803b1580156111a057600080fd5b505af11580156111b4573d6000803e3d6000fd5b505050507f642ada529b6301f6fe1b1ea3aece146ff7b00fdcb7402c85723f81f32f65a8376000809054906101000a900473ffffffffffffffffffffffffffffffffffffffff16600160009054906101000a900473ffffffffffffffffffffffffffffffffffffffff16600260009054906101000a900473ffffffffffffffffffffffffffffffffffffffff16600360009054906101000a900473ffffffffffffffffffffffffffffffffffffffff1642604051808673ffffffffffffffffffffffffffffffffffffffff1673ffffffffffffffffffffffffffffffffffffffff1681526020018573ffffffffffffffffffffffffffffffffffffffff1673ffffffffffffffffffffffffffffffffffffffff1681526020018473ffffffffffffffffffffffffffffffffffffffff1673ffffffffffffffffffffffffffffffffffffffff1681526020018373ffffffffffffffffffffffffffffffffffffffff1673ffffffffffffffffffffffffffffffffffffffff1681526020018281526020019550505050505060405180910390a1565b60118054600181600116156101000203166002900480601f0160208091040260200160405190810160405280929190818152602001828054600181600116156101000203166002900480156113de5780601f106113b3576101008083540402835291602001916113de565b820191906000526020600020905b8154815290600101906020018083116113c157829003601f168201915b505050505081565b600260009054906101000a900473ffffffffffffffffffffffffffffffffffffffff1673ffffffffffffffffffffffffffffffffffffffff163373ffffffffffffffffffffffffffffffffffffffff161415156114ab576040517f08c379a000000000000000000000000000000000000000000000000000000000815260040180806020018281038252600e8152602001807f696e76616c69642061636365737300000000000000000000000000000000000081525060200191505060405180910390fd5b60011515601260009054906101000a900460ff161515141515611536576040517f08c379a000000000000000000000000000000000000000000000000000000000815260040180806020018281038252601e8152602001807f636f6e7472616374206e6f7420617070726f766564206279206275796572000081525060200191505060405180910390fd5b6001600481111561154357fe5b6004600a0160009054906101000a900460ff16600481111561156157fe5b1415156115d6576040517f08c379a000000000000000000000000000000000000000000000000000000000815260040180806020018281038252600e8152602001807f496e76616c69642073746174757300000000000000000000000000000000000081525060200191505060405180910390fd5b6127103411151561164f576040517f08c379a00000000000000000000000000000000000000000000000000000000081526004018080602001828103825260148152602001807f696e73756666696369656e74206465706f73697400000000000000000000000081525060200191505060405180910390fd5b60026004600a0160006101000a81548160ff0219169083600481111561167157fe5b0217905550601060009054906101000a900473ffffffffffffffffffffffffffffffffffffffff1673ffffffffffffffffffffffffffffffffffffffff1663f340fa0134600360009054906101000a900473ffffffffffffffffffffffffffffffffffffffff166040518363ffffffff167c0100000000000000000000000000000000000000000000000000000000028152600401808273ffffffffffffffffffffffffffffffffffffffff1673ffffffffffffffffffffffffffffffffffffffff1681526020019150506000604051808303818588803b15801561175557600080fd5b505af1158015611769573d6000803e3d6000fd5b5050505050565b601060009054906101000a900473ffffffffffffffffffffffffffffffffffffffff168156fea165627a7a72305820b8338be042fa0a6c943dfc7d667d83819d526997c7f82ad82fef000d777c0fe40029608060405234801561001057600080fd5b50604051602080610b928339810180604052602081101561003057600080fd5b8101908080519060200190929190505050336000806101000a81548173ffffffffffffffffffffffffffffffffffffffff021916908373ffffffffffffffffffffffffffffffffffffffff1602179055507f4101e71e974f68df5e9730cc223280b41654676bbb052cdcc735c3337e64d2d96000809054906101000a900473ffffffffffffffffffffffffffffffffffffffff16604051808273ffffffffffffffffffffffffffffffffffffffff1673ffffffffffffffffffffffffffffffffffffffff16815260200191505060405180910390a16003811015151561017e576040517f08c379a00000000000000000000000000000000000000000000000000000000081526004018080602001828103825260128152602001807f696e76616c696420636f6e646974696f6e73000000000000000000000000000081525060200191505060405180910390fd5b806002819055506000600460006101000a81548160ff021916908315150217905550506109e2806101b06000396000f3fe608060405260043610610099576000357c0100000000000000000000000000000000000000000000000000000000900463ffffffff1680632348238c1461009e57806330ccebb5146100ef57806351cff8d914610154578063685ca194146101a5578063833caae61461020e578063c6dbdf6114610225578063e3a9db1a1461027c578063e44e241f146102e1578063f340fa0114610332575b600080fd5b3480156100aa57600080fd5b506100ed600480360360208110156100c157600080fd5b81019080803573ffffffffffffffffffffffffffffffffffffffff169060200190929190505050610376565b005b3480156100fb57600080fd5b5061013e6004803603602081101561011257600080fd5b81019080803573ffffffffffffffffffffffffffffffffffffffff1690602001909291905050506104d4565b6040518082815260200191505060405180910390f35b34801561016057600080fd5b506101a36004803603602081101561017757600080fd5b81019080803573ffffffffffffffffffffffffffffffffffffffff16906020019092919050505061051d565b005b3480156101b157600080fd5b506101f4600480360360208110156101c857600080fd5b81019080803573ffffffffffffffffffffffffffffffffffffffff16906020019092919050505061053d565b604051808215151515815260200191505060405180910390f35b34801561021a57600080fd5b506102236105a2565b005b34801561023157600080fd5b5061023a6105bf565b604051808273ffffffffffffffffffffffffffffffffffffffff1673ffffffffffffffffffffffffffffffffffffffff16815260200191505060405180910390f35b34801561028857600080fd5b506102cb6004803603602081101561029f57600080fd5b81019080803573ffffffffffffffffffffffffffffffffffffffff1690602001909291905050506105e8565b6040518082815260200191505060405180910390f35b3480156102ed57600080fd5b506103306004803603602081101561030457600080fd5b81019080803573ffffffffffffffffffffffffffffffffffffffff169060200190929190505050610631565b005b6103746004803603602081101561034857600080fd5b81019080803573ffffffffffffffffffffffffffffffffffffffff1690602001909291905050506106d1565b005b6000809054906101000a900473ffffffffffffffffffffffffffffffffffffffff1673ffffffffffffffffffffffffffffffffffffffff163373ffffffffffffffffffffffffffffffffffffffff161415156103d157600080fd5b600073ffffffffffffffffffffffffffffffffffffffff168173ffffffffffffffffffffffffffffffffffffffff161415151561040d57600080fd5b806000806101000a81548173ffffffffffffffffffffffffffffffffffffffff021916908373ffffffffffffffffffffffffffffffffffffffff1602179055507f4101e71e974f68df5e9730cc223280b41654676bbb052cdcc735c3337e64d2d96000809054906101000a900473ffffffffffffffffffffffffffffffffffffffff16604051808273ffffffffffffffffffffffffffffffffffffffff1673ffffffffffffffffffffffffffffffffffffffff16815260200191505060405180910390a150565b6000600360008373ffffffffffffffffffffffffffffffffffffffff1673ffffffffffffffffffffffffffffffffffffffff168152602001908152602001600020549050919050565b6105268161053d565b151561053157600080fd5b61053a81610818565b50565b6000600254600360008473ffffffffffffffffffffffffffffffffffffffff1673ffffffffffffffffffffffffffffffffffffffff1681526020019081526020016000205414801561059b5750600460009054906101000a900460ff165b9050919050565b6001600460006101000a81548160ff021916908315150217905550565b60008060009054906101000a900473ffffffffffffffffffffffffffffffffffffffff16905090565b6000600160008373ffffffffffffffffffffffffffffffffffffffff1673ffffffffffffffffffffffffffffffffffffffff168152602001908152602001600020549050919050565b600254600360008373ffffffffffffffffffffffffffffffffffffffff1673ffffffffffffffffffffffffffffffffffffffff1681526020019081526020016000205410151561068057600080fd5b6001600360008373ffffffffffffffffffffffffffffffffffffffff1673ffffffffffffffffffffffffffffffffffffffff1681526020019081526020016000206000828254019250508190555050565b6000809054906101000a900473ffffffffffffffffffffffffffffffffffffffff1673ffffffffffffffffffffffffffffffffffffffff163373ffffffffffffffffffffffffffffffffffffffff1614151561072c57600080fd5b600034905061078381600160008573ffffffffffffffffffffffffffffffffffffffff1673ffffffffffffffffffffffffffffffffffffffff1681526020019081526020016000205461099590919063ffffffff16565b600160008473ffffffffffffffffffffffffffffffffffffffff1673ffffffffffffffffffffffffffffffffffffffff168152602001908152602001600020819055508173ffffffffffffffffffffffffffffffffffffffff167f2da466a7b24304f47e87fa2e1e5a81b9831ce54fec19055ce277ca2f39ba42c4826040518082815260200191505060405180910390a25050565b6000809054906101000a900473ffffffffffffffffffffffffffffffffffffffff1673ffffffffffffffffffffffffffffffffffffffff163373ffffffffffffffffffffffffffffffffffffffff1614151561087357600080fd5b6000600160008373ffffffffffffffffffffffffffffffffffffffff1673ffffffffffffffffffffffffffffffffffffffff1681526020019081526020016000205490506000600160008473ffffffffffffffffffffffffffffffffffffffff1673ffffffffffffffffffffffffffffffffffffffff168152602001908152602001600020819055508173ffffffffffffffffffffffffffffffffffffffff166108fc829081150290604051600060405180830381858888f19350505050158015610942573d6000803e3d6000fd5b508173ffffffffffffffffffffffffffffffffffffffff167f7084f5476618d8e60b11ef0d7d3f06914655adb8793e28ff7f018d4c76d505d5826040518082815260200191505060405180910390a25050565b60008082840190508381101515156109ac57600080fd5b809150509291505056fea165627a7a7230582037477ab7aa709e65298516242df95fc2e6040abd02f340c888a9bf503d748a6b0029",
  "source": "pragma solidity ^0.5.0;\n\nimport \"./ConditionalTradeEscrow.sol\";\n\ncontract TradeFinance{\n\n    enum TradeStatus { Initialized, Approved, Active, Fulfilled, Concluded }\n\n    struct Trade {\n        bytes32 commodity;\n        uint price;\n        uint deliveryDate;\n        bytes32 deliveryVehicle;\n        bytes32 deliveryTerm;\n        uint quantity;\n        uint tolerance;\n        bytes32 surveyCompany;\n        bytes32 insuranceCertificate;\n        bytes commodityInfo;\n        TradeStatus status;\n    }\n\n    // struct Doc {\n    //     bytes32 name;\n    //     string value;\n    //     bool submitted;\n    // }\n\n    address public buyer;\n    address public seller;\n    \n    address public buyerBank;\n    address payable public sellerBank;\n\n    // Trade[] public trades;\n    Trade public trade;\n    bytes public description;\n    ConditionalTradeEscrow public escrow;\n\n    bytes public terms;\n\n    // Doc[] public documentChecklist;\n\n    bool public approved;\n    \n    event ContractApproved(uint _timestamp);\n    event ConditionFullfiled(bytes32 _message);\n    event TradeConcluded(address _buyer, address _seller, address _buyerBank, address _sellerBank, uint timestamp);\n    \n    modifier onlyBuyer(){\n        require(msg.sender == buyer, 'invalid access');\n        _;\n    }\n\n    modifier onlySeller(){\n        require(msg.sender == seller, 'invalid access');\n        _;\n    }\n\n    modifier onlyBuyerBank(){\n        require(msg.sender == buyerBank, 'invalid access');\n        _;\n    }\n    \n    modifier onlySellerBank(){\n        require(msg.sender == sellerBank, 'invalid access');\n        _;\n    }\n    \n    constructor(\n        address _seller, \n        address _buyerBank, \n        address payable _sellerBank,\n        bytes memory _description,\n        bytes32 _commodity,\n        uint _price,\n        uint _deliveryDate,\n        bytes32 _deliveryVehicle,\n        bytes32 _deliveryTerm,\n        uint _quantity,\n        uint _tolerance,\n        bytes32 _insuranceCertificate,\n        bytes32 _surveyCompany,\n        bytes memory _commodityInfo,\n        bytes memory _terms\n    ) public {\n        require( _buyerBank != address(0), 'invalid address');\n        require( _sellerBank != address(0), 'invalid address');\n        // require( _buyer != address(0), 'invalid address');\n        require( _seller != address(0), 'invalid address');\n\n        buyer = msg.sender;\n        seller = _seller;\n        buyerBank = _buyerBank;\n        sellerBank = _sellerBank;\n\n        description = _description;\n        trade = Trade({\n            commodity: _commodity,\n            price: _price,\n            deliveryDate: _deliveryDate,\n            deliveryVehicle: _deliveryVehicle,\n            deliveryTerm: _deliveryTerm,\n            quantity: _quantity,\n            tolerance: _tolerance,\n            surveyCompany: _surveyCompany,\n            insuranceCertificate: _insuranceCertificate,\n            commodityInfo: _commodityInfo,\n            status: TradeStatus.Initialized\n        });\n\n        approved = false;\n        escrow = new ConditionalTradeEscrow(4);\n        \n        terms = _terms;\n        // terms.push(_termB);\n        // terms.push(_termC);\n    }\n\n    function approveContract() public onlySeller {\n        require(trade.status == TradeStatus.Initialized, \"invalid status\");\n        approved = true;\n        trade.status = TradeStatus.Approved;\n        emit ContractApproved(now);\n    }\n\n    function initiateTrade() public onlyBuyerBank payable {\n        require(approved == true, 'contract not approved by buyer');\n        require(trade.status == TradeStatus.Approved, \"Invalid status\");\n        require(msg.value > 10000 wei, 'insufficient deposit');\n        trade.status = TradeStatus.Active;\n        escrow.deposit.value(msg.value)(sellerBank);\n    }\n\n    function indicateMetCondition(bytes32 message) public onlyBuyerBank {\n        require(trade.status == TradeStatus.Active, \"Invalid status\");\n        require(escrow.getStatus(sellerBank) < 4, \"conditions already fulfilled\");\n        if(escrow.getStatus(sellerBank) == 3){\n            trade.status = TradeStatus.Fulfilled;\n        }\n        escrow._metConditions(sellerBank);\n        emit ConditionFullfiled(message);\n    }\n    \n    function finalSellerBankApproval() payable public onlySellerBank {\n        require(trade.status == TradeStatus.Fulfilled, \"Invalid status\");\n        escrow._finalSellerApproval();\n        trade.status = TradeStatus.Concluded;\n        escrow.withdraw(sellerBank);\n        emit TradeConcluded(buyer, seller, buyerBank, sellerBank, now);\n    }\n}",
  "sourcePath": "/Users/vcrizpy/Desktop/dapps/TradeFinance/contracts/TradeFinance.sol",
  "compiler": {
    "name": "solc",
    "version": "0.5.0+commit.1d4f565a.Emscripten.clang"
  },
  "schemaVersion": "3.0.1",
  "updatedAt": "2019-01-15T15:26:11.222Z",
  "devdoc": {
    "methods": {}
  },
  "userdoc": {
    "methods": {}
  }
}